:020000040800F2
:1000000000000220F91000084911000849110008F9
:1000100049110008491100084911000800000000BA
:10002000000000000000000000000000491100086E
:10003000491100080000000049110008491100089A
:100040004911000849110008491100084911000828
:100050004911000849110008491100084911000818
:100060004911000849110008491100084911000808
:1000700049110008491100084911000849110008F8
:1000800049110008491100084911000849110008E8
:1000900049110008491100084911000849110008D8
:1000A00049110008491100084911000849110008C8
:1000B00049110008491100084911000849110008B8
:1000C00049110008491100084911000849110008A8
:1000D0004911000849110008491100084911000898
:1000E0004911000849110008491100084911000888
:1000F0004911000849110008491100084911000878
:100100004911000849110008491100084911000867
:100110004911000849110008491100084911000857
:100120004911000849110008491100084911000847
:1001300049110008000000000000000049110008FB
:100140004911000849110008491100084911000827
:100150004911000849110008491100084911000817
:100160004911000849110008491100084911000807
:100170004911000849110008491100080000000059
:10018000000000004911000800000000000000000D
:10019000491100080000000000000000491100089B
:1001A00000000000000000000000000049110008ED
:1001B00049110008491100084911000849110008B7
:0401C00049110008D9
:1001C40010B5054C237833B9044B13B10448AFF38D
:1001D40000800123237010BD0C00002000000000EB
:1001E4009411000808B5034B1BB103490348AFF34E
:1001F400008008BD000000001000002094110008D9
:1002040053B94AB9002908BF00281CBF4FF0FF3179
:100214004FF0FF3000F072B9ADF1080C6DE904CE77
:1002240000F006F8DDF804E0DDE9022304B07047CD
:100234002DE9F047089E04468846002B4BD18A429C
:10024400154667D9B2FA82F24AB1C2F1200701FA1F
:1002540002F320FA07F7954047EA030894404FEA6F
:10026400154E230CB8FBFEF71FFA85FC0EFB17880E
:1002740043EA084307FB0CF1994209D9EB1807F14B
:10028400FF3080F01B81994240F21881023F2B44D9
:100294005B1AA4B2B3FBFEF00EFB103344EA034432
:1002A40000FB0CFCA44509D92C1900F1FF3380F0A4
:1002B4000781A44540F2048102382C4440EA0740F7
:1002C400A4EB0C0400271EB1D4400023C6E900436C
:1002D4003946BDE8F0878B4209D9002E00F0EB8047
:1002E4000027C6E9000138463946BDE8F087B3FA6D
:1002F40083F7002F47D18B4202D3824200F2FA8067
:10030400841A61EB030301209846002EE0D0C6E96D
:100314000048DDE702B9FFDEB2FA82F2002A40F0BB
:100324008F80491B4FEA154E1FFA85F80127B1FB50
:10033400FEFC230C0EFB1C1143EA014308FB0CF1E9
:10034400994207D9EB180CF1FF3002D2994200F21E
:10035400CD808446591AA3B2B1FBFEF00EFB1014F3
:1003640043EA044408FB00F8A04507D92C1900F11E
:10037400FF3302D2A04500F2B6801846A4EB08046D
:1003840040EA0C409FE7C7F1200CBB4022FA0CFE68
:100394004EEA030E01FA07F420FA0CF521FA0CF3E5
:1003A4004FEA1E482543B3FBF8F92C0C08FB19331C
:1003B4001FFA8EFA44EA034309FB0AF49C4202FA48
:1003C40007F200FA07F10BD91EEB030309F1FF3022
:1003D40080F087809C4240F28480A9F10209734432
:1003E4001B1BADB2B3FBF8F008FB103345EA034422
:1003F40000FB0AFAA24508D91EEB040400F1FF33FE
:100404006BD2A24569D90238744440EA0940A0FB82
:100414000289A4EB0A044C45C2464B4654D351D03E
:10042400002E69D0B1EB0A0564EB030404FA0CFC5A
:10043400FD40FC404CEA0505C6E90054002747E7A7
:10044400C2F1200320FA03F7954001FA02F021FAE1
:1004540003F34FEA154E3843010CB3FBFEF71FFAC2
:1004640085F80EFB173341EA034107FB08F38B427F
:1004740004FA02F407D9691807F1FF3C2FD28B4222
:100484002DD9023F2944CB1A81B2B3FBFEF00EFBF7
:10049400103341EA034100FB08F38B4207D9691882
:1004A40000F1FF3C17D28B4215D902382944C91AEE
:1004B40040EA07473BE73746304609E70746E7E6A1
:1004C4001846FBE64145ABD2B8EB020A69EB0E02D3
:1004D40001381346A4E76046E9E7184695E76746FE
:1004E400D1E781467CE702382C4447E7ACF1020CA3
:1004F4002B442FE7384608E73746E9E6704700BF44
:1005040010B504460E4B18784FF47A73B3FBF0F32E
:100514000C4A1068B0FBF3F000F07CF868B90F2CBB
:1005240001D901200AE0002221464FF0FF3000F0FB
:100534003DF8034B5C60002000E0012010BD00BFCB
:10054400000000200800002008B50B4B1A6842F494
:1005540000721A601A6842F480621A601A6842F4DF
:1005640080721A60032000F00FF80020FFF7C8FF24
:1005740000F092FD002008BD003C0240014B1868C9
:10058400704700BF28000020074AD36823F4E063C3
:100594001B041B0C000200F4E060184340F0BF6031
:1005A40040F40030D060704700ED00E030B4174BE9
:1005B400DB68C3F30223C3F10704042C28BF04241B
:1005C4001D1D062D18D9033B4FF0FF3505FA04F421
:1005D40021EA0401994005FA03F322EA03031943CB
:1005E40000280BDB0901C9B200F1604000F561404D
:1005F40080F8001330BC70470023E5E700F00F00DB
:100604000901C9B2024B1954F4E700BF00ED00E040
:1006140014ED00E00138B0F1807F0AD2064B586037
:10062400064AF02182F823100020986007221A60FD
:1006340070470120704700BF10E000E000ED00E0CB
:10064400042805D0054A136823F004031360704797
:10065400024A136843F004031360704710E000E09B
:10066400002800F09E8070B50446504B1B6803F0D0
:100674000F038B4209D2CBB24C4A1370136803F0B8
:100684000F038B4201D0012070BD236813F0020FC9
:1006940017D013F0040F04D0454A936843F4E05391
:1006A4009360236813F0080F04D0414A936843F41D
:1006B400604393603E4A936823F0F003A0680343C9
:1006C40093600D46236813F0010F32D06368012B49
:1006D40021D09A1E012A25D9354A126812F0020F38
:1006E40061D033498A6822F0030213438B60FFF719
:1006F40045FF06462E4B9B6803F00C036268B3EB80
:10070400820F16D0FFF73AFF801B41F288339842DC
:10071400F0D90320B8E7264A126812F4003FE0D16A
:100724000120B1E7224A126812F0007FD9D10120DA
:10073400AAE71E4B1B6803F00F03AB4209D9EAB2C8
:100744001A4B1A701B6803F00F03AB4201D001204F
:100754009AE7236813F0040F06D0154A936823F42C
:10076400E053E1680B439360236813F0080F07D04C
:100774000F4A936823F46043216943EAC1039360F9
:1007840000F044F80A4B9B68C3F30313094AD35C93
:10079400D840094B1860094B1868FFF7B1FE0020D8
:1007A40072E70120704701206EE700BF003C024061
:1007B40000380240AC1100080800002004000020AA
:1007C400014B1868704700BF0800002008B5FFF708
:1007D400F7FF044B9B68C3F38223034AD35CD840DE
:1007E40008BD00BF00380240BC11000808B5FFF77F
:1007F400E7FF044B9B68C3F34233034AD35CD840FE
:1008040008BD00BF00380240BC1100082DE9F04BC0
:100814005C4B9B6803F00C03082B07D00C2B5BD0BC
:10082400042B00F0AD805848BDE8F08B554B5A6856
:1008340002F03F025B6813F4800F2AD0514B5B68CF
:10084400C3F388131E4600275C010025E41A65EBF8
:100854000705A90141EA9461A001001B61EB0501B0
:10086400CB0043EA5073C400A01943EB07014B02C9
:1008740043EAD0534402204619460023FFF7C0FC44
:10088400404B5B68C3F3014301335B00B0FBF3F0FF
:10089400CAE73C4B5B68C3F388131E4600275C0120
:1008A4000025E41A65EB0705A90141EA9461A0015A
:1008B400001B61EB0501CB0043EA5073C400A0198F
:1008C40043EB07018B0243EA905384022046194606
:1008D4000023FFF795FCD3E72A4B5A6802F03F0246
:1008E4005B6813F4800F28D0264B5B68C3F388132E
:1008F4001E4600275C010025E41A65EB0705A901E3
:1009040041EA9461A001001B61EB0501CB0043EABD
:100914005073C400A01943EB07014B0243EAD053C0
:100924004402204619460023FFF76AFC154B5B6816
:10093400C3F30273B0FBF3F076E7124B5B68C3F3C7
:1009440088131E4600275C010025E41A65EB0705A1
:10095400A90141EA9461A001001B61EB0501CB00F0
:1009640043EA5073C400A01943EB07018B0243EA26
:1009740090538402204619460023FFF741FCD5E733
:10098400024851E7003802400024F40000127A00C3
:1009940070B582B00446036813F0010F41D0A64B32
:1009A4009B6803F00C03042B32D0A34B9B6803F029
:1009B4000C03082B27D0A04B9B6803F00C030C2BD3
:1009C40059D06368B3F5803F5BD0B3F5A02F5ED0F8
:1009D400994B1A6822F480321A601A6822F4802231
:1009E4001A606368002B5CD0FFF7C8FD0546924B84
:1009F4001B6813F4003F14D1FFF7C0FD401B6428AB
:100A0400F5D903209DE18C4B5B6813F4800FD2D0A1
:100A1400894B1B6813F4003F03D06368002B00F07C
:100A24008D81236813F0020F67D0834B9B6813F00A
:100A34000C0F4AD0804B9B6803F00C03082B3FD06B
:100A44007D4B9B6803F00C030C2B48D0E368002B10
:100A540074D07A4B01221A60FFF790FD0546764B5D
:100A64001B6813F0020F60D1FFF788FD401B0228BA
:100A7400F5D9032065E1704B5B6813F4800FA0D0B7
:100A8400C6E76D4A136843F480331360A9E76A4BE1
:100A94001A6842F480221A601A6842F480321A609A
:100AA4009FE7FFF76BFD0546634B1B6813F4003F9C
:100AB400B7D0FFF763FD401B6428F5D9032040E15C
:100AC4005D4B5B6813F4800FBAD15B4B1B6813F06A
:100AD400020F0AD0E368012B07D0012031E1564B05
:100AE4005B6813F4800FB1D1EFE7534A136823F026
:100AF400F803216943EAC1031360236813F0080F64
:100B040040D0636963B34E4B01221A60FFF736FD90
:100B14000546494B5B6F13F0020F33D1FFF72EFDEF
:100B2400401B0228F5D903200BE1434A136823F044
:100B3400F803216943EAC1031360DEE73F4B002257
:100B44001A60FFF71BFD05463B4B1B6813F0020FB1
:100B5400D3D0FFF713FD401B0228F5D90320F0E0A2
:100B6400374B00221A60FFF709FD0546324B5B6FD5
:100B740013F0020F06D0FFF701FD401B0228F5D940
:100B84000320DEE0236813F0040F79D02A4B1B6C9A
:100B940013F0805F33D100230193274B1A6C42F08A
:100BA40080521A641B6C03F080530193019B01254E
:100BB400244B1B6813F4807F23D0A368012B34D00B
:100BC400052B41D01C4B1A6F22F001021A671A6FD1
:100BD40022F004021A67A368002B3FD0FFF7CEFC73
:100BE4000646154B1B6F13F0020F48D1FFF7C6FCE6
:100BF400801B41F288339842F3D90320A1E00025F9
:100C0400D6E7104A136843F480731360FFF7B6FC09
:100C140006460C4B1B6813F4807FCED1FFF7AEFC65
:100C2400801B0228F5D903208BE0034A136F43F09D
:100C340001031367CFE700BF0038024000004742BA
:100C4400800E474200700040404B1A6F42F004028D
:100C54001A671A6F42F001021A67BCE7FFF78EFCAD
:100C640006463A4B1B6F13F0020F08D0FFF786FCC1
:100C7400801B41F288339842F3D9032061E0E5B93F
:100C8400A369002B5CD0314A926802F00C02082A56
:100C940059D0022B17D02E4B00221A60FFF76EFC9E
:100CA40004462A4B1B6813F0007F45D0FFF766FC0F
:100CB400001B0228F5D9032043E0244A136C23F0D7
:100CC40080531364DCE7224B00221A60FFF756FCC2
:100CD40005461E4B1B6813F0007F06D0FFF74EFC41
:100CE400401B0228F5D903202BE0E369226A134351
:100CF400626A43EA8213A26A5208013A43EA02434F
:100D0400E26A43EA0263226B43EA02730F4A5360C6
:100D14000F4B01221A60FFF731FC04460B4B1B6892
:100D240013F0007F06D1FFF729FC001B0228F5D938
:100D3400032006E0002004E0002002E0012000E09F
:100D4400002002B070BD0120FBE700BF0038024064
:100D5400600047422DE9F04B04460268136923F40E
:100D64004053C1680B4313618368026913434269AA
:100D74001343C2691A430168CB6823F4164323F072
:100D84000C031343CB600268536923F440738169F5
:100D94000B435361C369B3F5004F3BD00368714AF9
:100DA400934200F0AB8002F58062934200F0A6808B
:100DB400FFF70CFD4FF00009061849EB090716EB85
:100DC400000B47EB090C4FEACC0343EA5B734FEA91
:100DD400CB0293469C4663689A009B0F10EB0B0072
:100DE40049EB0C01FFF70CFA5F4DA5FB00325109EA
:100DF400642202FB110213013233A5FB03235B09B6
:100E040003F0F00202EB011203F00F032168134414
:100E14008B60A4E00368534A934239D002F58062A0
:100E2400934235D0FFF7D2FC83464FF0000C0618EE
:100E34004CEB0C0716EB000847EB0C094FEAC9030F
:100E440043EA58734FEAC802904699466268002103
:100E5400921841EB01031BEB08004CEB0901FFF76F
:100E6400CFF9414DA5FB00325109642202FB110266
:100E7400D3003233A5FB03235B095A0002F4F87252
:100E840002EB011203F00703216813448B6066E050
:100E9400FFF7ACFC80464FF00009061849EB090740
:100EA40016EB000B47EB090C4FEACC0343EA5B73E8
:100EB4004FEACB0293469C4662680021921841EBAC
:100EC400010318EB0B0049EB0C01FFF799F9264DD0
:100ED400A5FB00325109642202FB1102D300323314
:100EE400A5FB03235B095A0002F4F87202EB01121A
:100EF40003F00703216813448B6030E0FFF776FCAE
:100F04004FF00009061849EB090716EB000B47EBF5
:100F1400090C4FEACC0343EA5B734FEACB029346D6
:100F24009C4663689A009B0F10EB0B0049EB0C0185
:100F3400FFF766F90C4DA5FB00325109642202FB50
:100F4400110213013233A5FB03235B0903F0F00202
:100F540002EB011203F00F03216813448B60BDE818
:100F6400F08B00BF001001401F85EB5158B310B542
:100F7400044690F839300BB3242384F839302268BE
:100F8400D36823F40053D3602046FFF7E3FE2268BE
:100F9400136923F4904313612268536923F02A03ED
:100FA40053612268D36843F40053D3600020E063A4
:100FB400202384F8393084F83A3010BD80F8383072
:100FC40000F088F8D8E701207047FEE700B593B039
:100FD4000023069307930A930C930223059301229B
:100FE4000892102209920B9308220D92B4220E92B9
:100FF4000F931093119305A8FFF7CAFC00BB0023BD
:101004000293022301930F2300934FF4A0530393FD
:101014004FF48053049305216846FFF721FB012810
:1010240010D10420FFF70CFBFFF7F0FB074BA3FBE9
:1010340000308009FFF7EEFA30B913B05DF804FB15
:10104400FFF7C3FFFFF7C1FFFFF7BFFFD34D6210E8
:1010540008B50B480B4B03604FF4E13343600023A6
:101064008361042242614FF40042C2610361C360A0
:101074008360FFF77BFF00B908BDFFF7A6FF00BF41
:101084002C0000200044004008B5FFF75DFAFFF78C
:101094009DFFFFF7DDFFFEE708B50320FFF774FAB5
:1010A4000B4A536A43F4E0235362002211466FF063
:1010B4000B00FFF77BFA002211466FF00A00FFF7DE
:1010C40075FA002211466FF00900FFF76FFA08BDA8
:1010D40000ED00E070470000054BD3F8882042F48F
:1010E4007002C3F888204FF000629A60704700BF16
:1010F40000ED00E0DFF834D0002103E00C4B5B5836
:10110400435004310B480C4B42189A42F6D30B4A15
:1011140002E0002342F8043B094B9A42F9D3FFF75B
:10112400DBFF00F011F8FFF7AFFF7047000002206B
:10113400D4110008000000200C0000200C00002046
:101144006C000020FEE7000070B50D4E0D4CA41B92
:10115400A4100025A54209D10B4E0C4C00F018F840
:10116400A41BA4100025A54205D170BD56F8253056
:1011740098470135EEE756F8253098470135F2E7F0
:10118400CC110008CC110008CC110008D0110008C3
:10119400F8B500BFF8BC08BC9E467047F8B500BF60
:0811A400F8BC08BC9E46704730
:1011AC00000000000000000001020304060708090B
:0811BC00000000000102030421
:0811C40070F0FF7F0100000044
:0411CC00E90100082D
:0411D000C50100084D
:0C11D40001000000100000000024F400E6
:04000005080010F9E6
:00000001FF
