:020000040800F2
:100000000000022061030008B1030008B1030008EA
:10001000B1030008B1030008B103000800000000AC
:10002000000000000000000000000000B103000814
:10003000B103000800000000B1030008B10300088C
:10004000B1030008B1030008B1030008B1030008C0
:10005000B1030008B1030008B1030008B1030008B0
:10006000B1030008B1030008B1030008B1030008A0
:10007000B1030008B1030008B1030008B103000890
:10008000B1030008B1030008B1030008B103000880
:10009000B1030008B1030008B1030008B103000870
:1000A000B1030008B1030008B1030008B103000860
:1000B000B1030008B1030008B1030008B103000850
:1000C000B1030008B1030008B1030008B103000840
:1000D000B1030008B1030008B1030008B103000830
:1000E000B1030008B1030008B1030008B103000820
:1000F000B1030008B1030008B1030008B103000810
:10010000B1030008B1030008B1030008B1030008FF
:10011000B1030008B1030008B1030008B1030008EF
:10012000B1030008B1030008B1030008B1030008DF
:10013000B10300080000000000000000B103000847
:10014000B1030008B1030008B1030008B1030008BF
:10015000B1030008B1030008B1030008B1030008AF
:10016000B1030008B1030008B1030008B10300089F
:10017000B1030008B1030008B1030008000000004B
:1001800000000000B10300080000000000000000B3
:10019000B10300080000000000000000B1030008E7
:1001A000000000000000000000000000B103000893
:1001B000B1030008B1030008B1030008B10300084F
:0401C000B10300087F
:1001C40010B5054C237833B9044B13B10448AFF38D
:1001D40000800123237010BD0C00002000000000EB
:1001E400FC03000808B5034B1BB103490348AFF3F4
:1001F400008008BD0000000010000020FC0300087F
:100204007047000010B504460E4B18784FF47A730B
:10021400B3FBF0F30C4A1068B0FBF3F000F076F88F
:1002240068B90F2C01D901200AE0002221464FF0C1
:10023400FF3000F037F8034B5C60002000E0012041
:1002440010BD00BF000000200800002008B50B4BC3
:100254001A6842F400721A601A6842F480621A60E2
:100264001A6842F480721A60032000F009F8002032
:10027400FFF7C8FFFFF7C4FF002008BD003C0240A1
:10028400074AD36823F4E0631B041B0C000200F448
:10029400E060184340F0BF6040F40030D060704725
:1002A40000ED00E030B4174BDB68C3F30223C3F165
:1002B4000704042C28BF04241D1D062D18D9033B54
:1002C4004FF0FF3505FA04F421EA0401994005FAD8
:1002D40003F322EA0303194300280BDB0901C9B223
:1002E40000F1604000F5614080F8001330BC7047B5
:1002F4000023E5E700F00F000901C9B2024B1954CD
:10030400F4E700BF00ED00E014ED00E00138B0F1C7
:10031400807F0AD2064B5860064AF02182F82310E7
:100324000020986007221A6070470120704700BFC0
:1003340010E000E000ED00E008B5FFF787FFFEE7FE
:10034400054BD3F8882042F47002C3F888204FF09C
:1003540000629A60704700BF00ED00E0DFF834D01F
:10036400002103E00C4B5B58435004310B480C4B09
:1003740042189A42F6D30B4A02E0002342F8043BA7
:10038400094B9A42F9D3FFF7DBFF00F011F8FFF7AE
:10039400D3FF7047000002201C0400080000002066
:1003A4000C0000200C00002028000020FEE70000C4
:1003B40070B50D4E0D4CA41BA4100025A54209D107
:1003C4000B4E0C4C00F018F8A41BA4100025A542F9
:1003D40005D170BD56F8253098470135EEE756F83B
:1003E400253098470135F2E7140400081404000886
:1003F4001404000818040008F8B500BFF8BC08BCD1
:100404009E467047F8B500BFF8BC08BC9E467047CE
:04041400E9010008F2
:04041800C501000812
:0C041C0001000000100000000024F400AB
:04000005080003618B
:00000001FF
